{
  "abi": [
    {
      "inputs": [
        {
          "internalType": "string",
          "name": "_name",
          "type": "string"
        },
        {
          "internalType": "string",
          "name": "_symbol",
          "type": "string"
        },
        {
          "internalType": "uint256",
          "name": "_totalSupply",
          "type": "uint256"
        }
      ],
      "stateMutability": "nonpayable",
      "type": "constructor"
    },
    {
      "anonymous": false,
      "inputs": [
        {
          "indexed": true,
          "internalType": "address",
          "name": "owner",
          "type": "address"
        },
        {
          "indexed": true,
          "internalType": "address",
          "name": "spender",
          "type": "address"
        },
        {
          "indexed": false,
          "internalType": "uint256",
          "name": "value",
          "type": "uint256"
        }
      ],
      "name": "Approval",
      "type": "event"
    },
    {
      "anonymous": false,
      "inputs": [
        {
          "indexed": true,
          "internalType": "address",
          "name": "previousOwner",
          "type": "address"
        },
        {
          "indexed": true,
          "internalType": "address",
          "name": "newOwner",
          "type": "address"
        }
      ],
      "name": "OwnershipTransferred",
      "type": "event"
    },
    {
      "anonymous": false,
      "inputs": [
        {
          "indexed": true,
          "internalType": "address",
          "name": "from",
          "type": "address"
        },
        {
          "indexed": true,
          "internalType": "address",
          "name": "to",
          "type": "address"
        },
        {
          "indexed": false,
          "internalType": "uint256",
          "name": "value",
          "type": "uint256"
        }
      ],
      "name": "Transfer",
      "type": "event"
    },
    {
      "inputs": [
        {
          "internalType": "address",
          "name": "",
          "type": "address"
        },
        {
          "internalType": "address",
          "name": "",
          "type": "address"
        }
      ],
      "name": "allowance",
      "outputs": [
        {
          "internalType": "uint256",
          "name": "",
          "type": "uint256"
        }
      ],
      "stateMutability": "view",
      "type": "function"
    },
    {
      "inputs": [
        {
          "internalType": "address",
          "name": "spender",
          "type": "address"
        },
        {
          "internalType": "uint256",
          "name": "amount",
          "type": "uint256"
        }
      ],
      "name": "approve",
      "outputs": [
        {
          "internalType": "bool",
          "name": "",
          "type": "bool"
        }
      ],
      "stateMutability": "nonpayable",
      "type": "function"
    },
    {
      "inputs": [
        {
          "internalType": "address",
          "name": "",
          "type": "address"
        }
      ],
      "name": "balanceOf",
      "outputs": [
        {
          "internalType": "uint256",
          "name": "",
          "type": "uint256"
        }
      ],
      "stateMutability": "view",
      "type": "function"
    },
    {
      "inputs": [
        {
          "internalType": "address",
          "name": "from",
          "type": "address"
        },
        {
          "internalType": "uint256",
          "name": "amount",
          "type": "uint256"
        }
      ],
      "name": "burn",
      "outputs": [],
      "stateMutability": "nonpayable",
      "type": "function"
    },
    {
      "inputs": [
        {
          "internalType": "address",
          "name": "to",
          "type": "address"
        },
        {
          "internalType": "uint256",
          "name": "amount",
          "type": "uint256"
        }
      ],
      "name": "mint",
      "outputs": [],
      "stateMutability": "nonpayable",
      "type": "function"
    },
    {
      "inputs": [],
      "name": "name",
      "outputs": [
        {
          "internalType": "string",
          "name": "",
          "type": "string"
        }
      ],
      "stateMutability": "view",
      "type": "function"
    },
    {
      "inputs": [],
      "name": "owner",
      "outputs": [
        {
          "internalType": "address",
          "name": "",
          "type": "address"
        }
      ],
      "stateMutability": "view",
      "type": "function"
    },
    {
      "inputs": [],
      "name": "renounceOwnership",
      "outputs": [],
      "stateMutability": "nonpayable",
      "type": "function"
    },
    {
      "inputs": [],
      "name": "symbol",
      "outputs": [
        {
          "internalType": "string",
          "name": "",
          "type": "string"
        }
      ],
      "stateMutability": "view",
      "type": "function"
    },
    {
      "inputs": [],
      "name": "totalSupply",
      "outputs": [
        {
          "internalType": "uint256",
          "name": "",
          "type": "uint256"
        }
      ],
      "stateMutability": "view",
      "type": "function"
    },
    {
      "inputs": [
        {
          "internalType": "address",
          "name": "to",
          "type": "address"
        },
        {
          "internalType": "uint256",
          "name": "amount",
          "type": "uint256"
        }
      ],
      "name": "transfer",
      "outputs": [
        {
          "internalType": "bool",
          "name": "",
          "type": "bool"
        }
      ],
      "stateMutability": "nonpayable",
      "type": "function"
    },
    {
      "inputs": [
        {
          "internalType": "address",
          "name": "from",
          "type": "address"
        },
        {
          "internalType": "address",
          "name": "to",
          "type": "address"
        },
        {
          "internalType": "uint256",
          "name": "amount",
          "type": "uint256"
        }
      ],
      "name": "transferFrom",
      "outputs": [
        {
          "internalType": "bool",
          "name": "",
          "type": "bool"
        }
      ],
      "stateMutability": "nonpayable",
      "type": "function"
    },
    {
      "inputs": [
        {
          "internalType": "address",
          "name": "newOwner",
          "type": "address"
        }
      ],
      "name": "transferOwnership",
      "outputs": [],
      "stateMutability": "nonpayable",
      "type": "function"
    }
  ],
  "bytecode": {
    "object": "0x60806040523480156200001157600080fd5b5060405162000d2c38038062000d2c833981016040819052620000349162000190565b6200003f336200007b565b60016200004d848262000292565b5060026200005c838262000292565b50600381905533600090815260046020526040902055506200035e9050565b600080546001600160a01b038381166001600160a01b0319831681178455604051919092169283917f8be0079c531659141344cd1fd0a4f28419497f9722a3daafe3b4186f6b6457e09190a35050565b634e487b7160e01b600052604160045260246000fd5b600082601f830112620000f357600080fd5b81516001600160401b0380821115620001105762000110620000cb565b604051601f8301601f19908116603f011681019082821181831017156200013b576200013b620000cb565b816040528381526020925086838588010111156200015857600080fd5b600091505b838210156200017c57858201830151818301840152908201906200015d565b600093810190920192909252949350505050565b600080600060608486031215620001a657600080fd5b83516001600160401b0380821115620001be57600080fd5b620001cc87838801620000e1565b94506020860151915080821115620001e357600080fd5b50620001f286828701620000e1565b925050604084015190509250925092565b600181811c908216806200021857607f821691505b6020821081036200023957634e487b7160e01b600052602260045260246000fd5b50919050565b601f8211156200028d57600081815260208120601f850160051c81016020861015620002685750805b601f850160051c820191505b81811015620002895782815560010162000274565b5050505b505050565b81516001600160401b03811115620002ae57620002ae620000cb565b620002c681620002bf845462000203565b846200023f565b602080601f831160018114620002fe5760008415620002e55750858301515b600019600386901b1c1916600185901b17855562000289565b600085815260208120601f198616915b828110156200032f578886015182559484019460019091019084016200030e565b50858210156200034e5787850151600019600388901b60f8161c191681555b5050505050600190811b01905550565b6109be806200036e6000396000f3fe608060405234801561001057600080fd5b50600436106100cf5760003560e01c8063715018a61161008c5780639dc29fac116100665780639dc29fac1461019f578063a9059cbb146101b2578063dd62ed3e146101c5578063f2fde38b146101f057600080fd5b8063715018a6146101745780638da5cb5b1461017c57806395d89b411461019757600080fd5b806306fdde03146100d4578063095ea7b3146100f257806318160ddd1461011557806323b872dd1461012c57806340c10f191461013f57806370a0823114610154575b600080fd5b6100dc610203565b6040516100e9919061079f565b60405180910390f35b610105610100366004610809565b610291565b60405190151581526020016100e9565b61011e60035481565b6040519081526020016100e9565b61010561013a366004610833565b6102fe565b61015261014d366004610809565b610480565b005b61011e61016236600461086f565b60046020526000908152604090205481565b610152610500565b6000546040516001600160a01b0390911681526020016100e9565b6100dc610514565b6101526101ad366004610809565b610521565b6101056101c0366004610809565b6105d1565b61011e6101d3366004610891565b600560209081526000928352604080842090915290825290205481565b6101526101fe36600461086f565b61067c565b60018054610210906108c4565b80601f016020809104026020016040519081016040528092919081815260200182805461023c906108c4565b80156102895780601f1061025e57610100808354040283529160200191610289565b820191906000526020600020905b81548152906001019060200180831161026c57829003601f168201915b505050505081565b3360008181526005602090815260408083206001600160a01b038716808552925280832085905551919290917f8c5be1e5ebec7d5bd14f71427d1e84f3dd0314c0f7b2291e5b200ac8c7c3b925906102ec9086815260200190565b60405180910390a35060015b92915050565b6001600160a01b038316600090815260056020908152604080832033845290915281205482111561036f5760405162461bcd60e51b8152602060048201526016602482015275496e73756666696369656e7420616c6c6f77616e636560501b60448201526064015b60405180910390fd5b6001600160a01b0384166000908152600460205260409020548211156103a75760405162461bcd60e51b8152600401610366906108fe565b6001600160a01b0384166000908152600560209081526040808320338452909152812080548492906103da908490610942565b90915550506001600160a01b03841660009081526004602052604081208054849290610407908490610942565b90915550506001600160a01b03831660009081526004602052604081208054849290610434908490610955565b92505081905550826001600160a01b0316846001600160a01b03166000805160206109698339815191528460405161046e91815260200190565b60405180910390a35060019392505050565b6104886106f5565b806003600082825461049a9190610955565b90915550506001600160a01b038216600090815260046020526040812080548392906104c7908490610955565b90915550506040518181526001600160a01b03831690600090600080516020610969833981519152906020015b60405180910390a35050565b6105086106f5565b610512600061074f565b565b60028054610210906108c4565b6105296106f5565b6001600160a01b0382166000908152600460205260409020548111156105615760405162461bcd60e51b8152600401610366906108fe565b80600360008282546105739190610942565b90915550506001600160a01b038216600090815260046020526040812080548392906105a0908490610942565b90915550506040518181526000906001600160a01b03841690600080516020610969833981519152906020016104f4565b336000908152600460205260408120548211156106005760405162461bcd60e51b8152600401610366906108fe565b336000908152600460205260408120805484929061061f908490610942565b90915550506001600160a01b0383166000908152600460205260408120805484929061064c908490610955565b90915550506040518281526001600160a01b038416903390600080516020610969833981519152906020016102ec565b6106846106f5565b6001600160a01b0381166106e95760405162461bcd60e51b815260206004820152602660248201527f4f776e61626c653a206e6577206f776e657220697320746865207a65726f206160448201526564647265737360d01b6064820152608401610366565b6106f28161074f565b50565b6000546001600160a01b031633146105125760405162461bcd60e51b815260206004820181905260248201527f4f776e61626c653a2063616c6c6572206973206e6f7420746865206f776e65726044820152606401610366565b600080546001600160a01b038381166001600160a01b0319831681178455604051919092169283917f8be0079c531659141344cd1fd0a4f28419497f9722a3daafe3b4186f6b6457e09190a35050565b600060208083528351808285015260005b818110156107cc578581018301518582016040015282016107b0565b506000604082860101526040601f19601f8301168501019250505092915050565b80356001600160a01b038116811461080457600080fd5b919050565b6000806040838503121561081c57600080fd5b610825836107ed565b946020939093013593505050565b60008060006060848603121561084857600080fd5b610851846107ed565b925061085f602085016107ed565b9150604084013590509250925092565b60006020828403121561088157600080fd5b61088a826107ed565b9392505050565b600080604083850312156108a457600080fd5b6108ad836107ed565b91506108bb602084016107ed565b90509250929050565b600181811c908216806108d857607f821691505b6020821081036108f857634e487b7160e01b600052602260045260246000fd5b50919050565b602080825260149082015273496e73756666696369656e742062616c616e636560601b604082015260600190565b634e487b7160e01b600052601160045260246000fd5b818103818111156102f8576102f861092c565b808201808211156102f8576102f861092c56feddf252ad1be2c89b69c2b068fc378daa952ba7f163c4a11628f55a4df523b3efa26469706673582212204d25b9fb5773c236af93d4ab86d87469b7f9bb1bf0200783467fffdac1be52cf64736f6c63430008150033",
    "linkReferences": {}
  },
  "methodIdentifiers": {
    "allowance(address,address)": "dd62ed3e",
    "approve(address,uint256)": "095ea7b3",
    "balanceOf(address)": "70a08231",
    "burn(address,uint256)": "9dc29fac",
    "mint(address,uint256)": "40c10f19",
    "name()": "06fdde03",
    "owner()": "8da5cb5b",
    "renounceOwnership()": "715018a6",
    "symbol()": "95d89b41",
    "totalSupply()": "18160ddd",
    "transfer(address,uint256)": "a9059cbb",
    "transferFrom(address,address,uint256)": "23b872dd",
    "transferOwnership(address)": "f2fde38b"
  },
  "id": 4
}