{
  "abi": [
    {
      "inputs": [
        {
          "internalType": "uint256",
          "name": "_listingFee",
          "type": "uint256"
        }
      ],
      "stateMutability": "nonpayable",
      "type": "constructor"
    },
    {
      "inputs": [],
      "name": "ContractNotApprovedError",
      "type": "error"
    },
    {
      "inputs": [],
      "name": "DeadlineInPastError",
      "type": "error"
    },
    {
      "inputs": [],
      "name": "IncorrectListingFeeError",
      "type": "error"
    },
    {
      "inputs": [],
      "name": "InvalidOrderIdError",
      "type": "error"
    },
    {
      "inputs": [],
      "name": "InvalidSignatureError",
      "type": "error"
    },
    {
      "inputs": [],
      "name": "InvalidTokenAddressError",
      "type": "error"
    },
    {
      "inputs": [],
      "name": "InvalidTradeStateError",
      "type": "error"
    },
    {
      "inputs": [],
      "name": "NFTAlreadyListedError",
      "type": "error"
    },
    {
      "inputs": [],
      "name": "NFTContractNotAcceptedError",
      "type": "error"
    },
    {
      "inputs": [],
      "name": "OnlySellerError",
      "type": "error"
    },
    {
      "inputs": [],
      "name": "PriceZeroError",
      "type": "error"
    },
    {
      "inputs": [],
      "name": "TokenAddressHasNoCodeError",
      "type": "error"
    },
    {
      "anonymous": false,
      "inputs": [
        {
          "indexed": true,
          "internalType": "uint256",
          "name": "tokenId",
          "type": "uint256"
        }
      ],
      "name": "OrderCancelled",
      "type": "event"
    },
    {
      "anonymous": false,
      "inputs": [
        {
          "indexed": true,
          "internalType": "address",
          "name": "seller",
          "type": "address"
        },
        {
          "indexed": true,
          "internalType": "uint256",
          "name": "tokenId",
          "type": "uint256"
        },
        {
          "indexed": false,
          "internalType": "uint256",
          "name": "price",
          "type": "uint256"
        },
        {
          "indexed": false,
          "internalType": "uint256",
          "name": "deadline",
          "type": "uint256"
        }
      ],
      "name": "OrderCreated",
      "type": "event"
    },
    {
      "anonymous": false,
      "inputs": [
        {
          "indexed": true,
          "internalType": "uint256",
          "name": "orderId",
          "type": "uint256"
        },
        {
          "indexed": true,
          "internalType": "address",
          "name": "buyer",
          "type": "address"
        }
      ],
      "name": "OrderExecuted",
      "type": "event"
    },
    {
      "anonymous": false,
      "inputs": [
        {
          "indexed": true,
          "internalType": "address",
          "name": "previousOwner",
          "type": "address"
        },
        {
          "indexed": true,
          "internalType": "address",
          "name": "newOwner",
          "type": "address"
        }
      ],
      "name": "OwnershipTransferred",
      "type": "event"
    },
    {
      "anonymous": false,
      "inputs": [
        {
          "indexed": true,
          "internalType": "uint256",
          "name": "orderId",
          "type": "uint256"
        },
        {
          "indexed": true,
          "internalType": "address",
          "name": "confirmer",
          "type": "address"
        }
      ],
      "name": "TradeConfirmed",
      "type": "event"
    },
    {
      "inputs": [
        {
          "internalType": "uint256",
          "name": "_tokenId",
          "type": "uint256"
        },
        {
          "internalType": "uint256",
          "name": "_price",
          "type": "uint256"
        },
        {
          "internalType": "uint256",
          "name": "_deadline",
          "type": "uint256"
        },
        {
          "internalType": "bytes",
          "name": "_signature",
          "type": "bytes"
        },
        {
          "internalType": "address",
          "name": "nftContractAddress_",
          "type": "address"
        }
      ],
      "name": "createOrder",
      "outputs": [],
      "stateMutability": "payable",
      "type": "function"
    },
    {
      "inputs": [
        {
          "internalType": "uint256",
          "name": "_orderId",
          "type": "uint256"
        }
      ],
      "name": "executeOrder",
      "outputs": [],
      "stateMutability": "payable",
      "type": "function"
    },
    {
      "inputs": [
        {
          "internalType": "uint256",
          "name": "tokenId",
          "type": "uint256"
        }
      ],
      "name": "getOrder",
      "outputs": [
        {
          "internalType": "address",
          "name": "seller",
          "type": "address"
        },
        {
          "internalType": "uint256",
          "name": "price",
          "type": "uint256"
        },
        {
          "internalType": "uint256",
          "name": "deadline",
          "type": "uint256"
        },
        {
          "internalType": "bool",
          "name": "isActive",
          "type": "bool"
        },
        {
          "internalType": "bytes",
          "name": "signature",
          "type": "bytes"
        }
      ],
      "stateMutability": "view",
      "type": "function"
    },
    {
      "inputs": [
        {
          "internalType": "uint256",
          "name": "_orderId",
          "type": "uint256"
        }
      ],
      "name": "getTradeState",
      "outputs": [
        {
          "internalType": "uint256",
          "name": "",
          "type": "uint256"
        }
      ],
      "stateMutability": "view",
      "type": "function"
    },
    {
      "inputs": [],
      "name": "listingFee",
      "outputs": [
        {
          "internalType": "uint256",
          "name": "",
          "type": "uint256"
        }
      ],
      "stateMutability": "view",
      "type": "function"
    },
    {
      "inputs": [],
      "name": "nftContract",
      "outputs": [
        {
          "internalType": "contract IERC721",
          "name": "",
          "type": "address"
        }
      ],
      "stateMutability": "view",
      "type": "function"
    },
    {
      "inputs": [],
      "name": "orderCounter",
      "outputs": [
        {
          "internalType": "uint256",
          "name": "",
          "type": "uint256"
        }
      ],
      "stateMutability": "view",
      "type": "function"
    },
    {
      "inputs": [],
      "name": "owner",
      "outputs": [
        {
          "internalType": "address",
          "name": "",
          "type": "address"
        }
      ],
      "stateMutability": "view",
      "type": "function"
    },
    {
      "inputs": [],
      "name": "renounceOwnership",
      "outputs": [],
      "stateMutability": "nonpayable",
      "type": "function"
    },
    {
      "inputs": [
        {
          "internalType": "uint256",
          "name": "_newFee",
          "type": "uint256"
        }
      ],
      "name": "setListingFee",
      "outputs": [],
      "stateMutability": "nonpayable",
      "type": "function"
    },
    {
      "inputs": [
        {
          "internalType": "uint256",
          "name": "_tokenId",
          "type": "uint256"
        },
        {
          "internalType": "bool",
          "name": "status",
          "type": "bool"
        }
      ],
      "name": "toggleActive",
      "outputs": [],
      "stateMutability": "nonpayable",
      "type": "function"
    },
    {
      "inputs": [
        {
          "internalType": "uint256",
          "name": "",
          "type": "uint256"
        }
      ],
      "name": "tokenIdToOrder",
      "outputs": [
        {
          "internalType": "address",
          "name": "seller",
          "type": "address"
        },
        {
          "internalType": "uint256",
          "name": "tokenId",
          "type": "uint256"
        },
        {
          "internalType": "uint256",
          "name": "price",
          "type": "uint256"
        },
        {
          "internalType": "uint256",
          "name": "deadline",
          "type": "uint256"
        },
        {
          "internalType": "bool",
          "name": "isActive",
          "type": "bool"
        },
        {
          "internalType": "address",
          "name": "nftContractAddress",
          "type": "address"
        },
        {
          "internalType": "bytes",
          "name": "signature",
          "type": "bytes"
        }
      ],
      "stateMutability": "view",
      "type": "function"
    },
    {
      "inputs": [
        {
          "internalType": "uint256",
          "name": "",
          "type": "uint256"
        }
      ],
      "name": "tradeStates",
      "outputs": [
        {
          "internalType": "uint256",
          "name": "",
          "type": "uint256"
        }
      ],
      "stateMutability": "view",
      "type": "function"
    },
    {
      "inputs": [
        {
          "internalType": "address",
          "name": "newOwner",
          "type": "address"
        }
      ],
      "name": "transferOwnership",
      "outputs": [],
      "stateMutability": "nonpayable",
      "type": "function"
    },
    {
      "inputs": [
        {
          "internalType": "uint256",
          "name": "_tokenId",
          "type": "uint256"
        },
        {
          "internalType": "uint256",
          "name": "_deadline",
          "type": "uint256"
        }
      ],
      "name": "updateDeadline",
      "outputs": [],
      "stateMutability": "nonpayable",
      "type": "function"
    },
    {
      "inputs": [
        {
          "internalType": "uint256",
          "name": "_orderId",
          "type": "uint256"
        },
        {
          "internalType": "uint256",
          "name": "_tradeState",
          "type": "uint256"
        }
      ],
      "name": "updateTradeState",
      "outputs": [],
      "stateMutability": "nonpayable",
      "type": "function"
    }
  ],
  "bytecode": {
    "object": "0x608060405234801561001057600080fd5b5060405161148c38038061148c83398101604081905261002f91610097565b600160005561003d33610045565b6003556100b0565b600180546001600160a01b038381166001600160a01b0319831681179093556040519116919082907f8be0079c531659141344cd1fd0a4f28419497f9722a3daafe3b4186f6b6457e090600090a35050565b6000602082840312156100a957600080fd5b5051919050565b6113cd806100bf6000396000f3fe6080604052600436106100f35760003560e01c80638da5cb5b1161008a578063c59694cf11610059578063c59694cf14610286578063d09ef241146102b3578063d56d229d146102e4578063f2fde38b1461030457600080fd5b80638da5cb5b146101f857806394f611341461022a578063a95b46151461023d578063b789bf521461027057600080fd5b80636a1b7ecc116100c65780636a1b7ecc1461016d578063715018a6146101965780637f24c240146101ab578063899b184f146101d857600080fd5b8063131dbd09146100f85780631cacecaa1461011a578063600379b21461013a57806365f9f8d61461015a575b600080fd5b34801561010457600080fd5b50610118610113366004610f73565b610324565b005b34801561012657600080fd5b50610118610135366004610f9a565b610331565b34801561014657600080fd5b50610118610155366004610fca565b61035c565b61011861016836600461101e565b610376565b34801561017957600080fd5b5061018360035481565b6040519081526020015b60405180910390f35b3480156101a257600080fd5b50610118610690565b3480156101b757600080fd5b506101836101c6366004610f73565b60066020526000908152604090205481565b3480156101e457600080fd5b506101186101f3366004610fca565b6106a4565b34801561020457600080fd5b506001546001600160a01b03165b6040516001600160a01b03909116815260200161018d565b610118610238366004610f73565b6106c1565b34801561024957600080fd5b5061025d610258366004610f73565b6109c6565b60405161018d9796959493929190611143565b34801561027c57600080fd5b5061018360045481565b34801561029257600080fd5b506101836102a1366004610f73565b60009081526006602052604090205490565b3480156102bf57600080fd5b506102d36102ce366004610f73565b610aa1565b60405161018d959493929190611195565b3480156102f057600080fd5b50600254610212906001600160a01b031681565b34801561031057600080fd5b5061011861031f3660046111d5565b610b86565b61032c610bfc565b600355565b610339610bfc565b600091825260056020526040909120600401805460ff1916911515919091179055565b610364610bfc565b60009182526006602052604090912055565b61037e610c56565b6001546001600160a01b031633036103a957604051632f324e0160e11b815260040160405180910390fd5b600085815260066020526040902054156103d65760405163b523f33960e01b815260040160405180910390fd5b60008581526005602052604090206004015460ff1615610409576040516334f605e560e01b815260040160405180910390fd5b600354341461042b576040516359c87a9d60e11b815260040160405180910390fd5b4283101561044c5760405163315a036d60e01b815260040160405180910390fd5b8360000361046d57604051631a27c4b560e31b815260040160405180910390fd5b600280546001600160a01b0319166001600160a01b03831690811790915560405163e985e9c560e01b815233600482015230602482015263e985e9c590604401602060405180830381865afa1580156104ca573d6000803e3d6000fd5b505050506040513d601f19601f820116820180604052508101906104ee91906111f7565b61050b5760405163f66a8f9760e01b815260040160405180910390fd5b6040518060e00160405280336001600160a01b03168152602001868152602001858152602001848152602001600115158152602001826001600160a01b03168152602001838152506005600087815260200190815260200160002060008201518160000160006101000a8154816001600160a01b0302191690836001600160a01b0316021790555060208201518160010155604082015181600201556060820151816003015560808201518160040160006101000a81548160ff02191690831515021790555060a08201518160040160016101000a8154816001600160a01b0302191690836001600160a01b0316021790555060c0820151816005019081610613919061129d565b5050600480546000908152600660205260408120600190819055825490935061063d90849061135d565b90915550506040805185815260208101859052869133917fc91f8c0f477cf15f9c2817f9ebd625732b44c4753ed718ae0276a96577a69f72910160405180910390a36106896001600055565b5050505050565b610698610bfc565b6106a26000610caf565b565b6106ac610bfc565b60009182526005602052604090912060030155565b6106c9610c56565b6004548111156106ec57604051632df5e7d360e01b815260040160405180910390fd5b6106f581610d01565b50600081815260056020526040902060020154341461072757604051631a27c4b560e31b815260040160405180910390fd5b60008181526005602052604090206004015460ff16610759576040516334f605e560e01b815260040160405180910390fd5b60008181526005602090815260408083206006909252909120546002036109b857600181015460028201548254600384015460405163c4d5713360e01b8152600481019490945260248401929092526001600160a01b03166044830152606482015260009073__$36a9d5dd491f3686fdf32d605954e90678$__9063c4d5713390608401602060405180830381865af41580156107fa573d6000803e3d6000fd5b505050506040513d601f19601f8201168201806040525081019061081e919061137e565b90506108b78183600501805461083390611214565b80601f016020809104026020016040519081016040528092919081815260200182805461085f90611214565b80156108ac5780601f10610881576101008083540402835291602001916108ac565b820191906000526020600020905b81548152906001019060200180831161088f57829003601f168201915b505050505033610d74565b6108fc5760405162461bcd60e51b8152602060048201526011602482015270696e76616c6964207369676e617475726560781b60448201526064015b60405180910390fd5b600280546001600160a01b0319163390811790915582546001840154604051632142170760e11b81526001600160a01b0390921660048301526024820183905260448201526342842e0e90606401600060405180830381600087803b15801561096457600080fd5b505af1158015610978573d6000803e3d6000fd5b50506040513092503480156108fc029250906000818181858888f193505050501580156109a9573d6000803e3d6000fd5b505060048101805460ff191690555b506109c36001600055565b50565b60056020819052600091825260409091208054600182015460028301546003840154600485015495850180546001600160a01b039586169794969395929460ff811694610100909104909316929190610a1e90611214565b80601f0160208091040260200160405190810160405280929190818152602001828054610a4a90611214565b8015610a975780601f10610a6c57610100808354040283529160200191610a97565b820191906000526020600020905b815481529060010190602001808311610a7a57829003601f168201915b5050505050905087565b600081815260056020819052604082208054600282015460038301546004840154948401805487968796879660609691956001600160a01b03909116949193909260ff1691908190610af290611214565b80601f0160208091040260200160405190810160405280929190818152602001828054610b1e90611214565b8015610b6b5780601f10610b4057610100808354040283529160200191610b6b565b820191906000526020600020905b815481529060010190602001808311610b4e57829003601f168201915b50505050509050955095509550955095505091939590929450565b610b8e610bfc565b6001600160a01b038116610bf35760405162461bcd60e51b815260206004820152602660248201527f4f776e61626c653a206e6577206f776e657220697320746865207a65726f206160448201526564647265737360d01b60648201526084016108f3565b6109c381610caf565b6001546001600160a01b031633146106a25760405162461bcd60e51b815260206004820181905260248201527f4f776e61626c653a2063616c6c6572206973206e6f7420746865206f776e657260448201526064016108f3565b600260005403610ca85760405162461bcd60e51b815260206004820152601f60248201527f5265656e7472616e637947756172643a207265656e7472616e742063616c6c0060448201526064016108f3565b6002600055565b600180546001600160a01b038381166001600160a01b0319831681179093556040519116919082907f8be0079c531659141344cd1fd0a4f28419497f9722a3daafe3b4186f6b6457e090600090a35050565b600081815260066020526040812054600114610d305760405163b523f33960e01b815260040160405180910390fd5b6000828152600660205260408082206002905551339184917f4886270d3c681c8373359d1cfafb1a549453e43e452ce59a9eae87f8a23e50be9190a3506001919050565b600080610dce856040517f19457468657265756d205369676e6564204d6573736167653a0a3332000000006020820152603c8101829052600090605c01604051602081830303815290604052805190602001209050919050565b9050610de2610ddd8286610e12565b610e92565b610deb83610e92565b826001600160a01b0316610dff8286610e12565b6001600160a01b03161495945050505050565b600080600080610e2185610eda565b6040805160008152602081018083528b905260ff8316918101919091526060810184905260808101839052929550909350915060019060a0016020604051602081039080840390855afa158015610e7c573d6000803e3d6000fd5b5050506020604051035193505050505b92915050565b6040516001600160a01b03821660248201526109c39060440160408051601f198184030181529190526020810180516001600160e01b031663161765e160e11b179052610f4e565b60008060008351604114610f305760405162461bcd60e51b815260206004820152601860248201527f496e76616c6964207369676e6174757265206c656e677468000000000000000060448201526064016108f3565b50505060208101516040820151606090920151909260009190911a90565b6109c38180516a636f6e736f6c652e6c6f67602083016000808483855afa5050505050565b600060208284031215610f8557600080fd5b5035919050565b80151581146109c357600080fd5b60008060408385031215610fad57600080fd5b823591506020830135610fbf81610f8c565b809150509250929050565b60008060408385031215610fdd57600080fd5b50508035926020909101359150565b634e487b7160e01b600052604160045260246000fd5b80356001600160a01b038116811461101957600080fd5b919050565b600080600080600060a0868803121561103657600080fd5b853594506020860135935060408601359250606086013567ffffffffffffffff8082111561106357600080fd5b818801915088601f83011261107757600080fd5b81358181111561108957611089610fec565b604051601f8201601f19908116603f011681019083821181831017156110b1576110b1610fec565b816040528281528b60208487010111156110ca57600080fd5b8260208601602083013760006020848301015280965050505050506110f160808701611002565b90509295509295909350565b6000815180845260005b8181101561112357602081850181015186830182015201611107565b506000602082860101526020601f19601f83011685010191505092915050565b600060018060a01b03808a168352886020840152876040840152866060840152851515608084015280851660a08401525060e060c083015261118860e08301846110fd565b9998505050505050505050565b60018060a01b0386168152846020820152836040820152821515606082015260a0608082015260006111ca60a08301846110fd565b979650505050505050565b6000602082840312156111e757600080fd5b6111f082611002565b9392505050565b60006020828403121561120957600080fd5b81516111f081610f8c565b600181811c9082168061122857607f821691505b60208210810361124857634e487b7160e01b600052602260045260246000fd5b50919050565b601f82111561129857600081815260208120601f850160051c810160208610156112755750805b601f850160051c820191505b8181101561129457828155600101611281565b5050505b505050565b815167ffffffffffffffff8111156112b7576112b7610fec565b6112cb816112c58454611214565b8461124e565b602080601f83116001811461130057600084156112e85750858301515b600019600386901b1c1916600185901b178555611294565b600085815260208120601f198616915b8281101561132f57888601518255948401946001909101908401611310565b508582101561134d5787850151600019600388901b60f8161c191681555b5050505050600190811b01905550565b80820180821115610e8c57634e487b7160e01b600052601160045260246000fd5b60006020828403121561139057600080fd5b505191905056fea26469706673582212205c8556ca38dac3cb5ae37c7ea03ec03d2fb8d9bbcc0bdd3d0c5a7e868123ead964736f6c63430008150033",
    "linkReferences": {
      "src/libraries/SignUtils.sol": {
        "SignUtils": [
          {
            "start": 2175,
            "length": 20
          }
        ]
      }
    }
  },
  "methodIdentifiers": {
    "createOrder(uint256,uint256,uint256,bytes,address)": "65f9f8d6",
    "executeOrder(uint256)": "94f61134",
    "getOrder(uint256)": "d09ef241",
    "getTradeState(uint256)": "c59694cf",
    "listingFee()": "6a1b7ecc",
    "nftContract()": "d56d229d",
    "orderCounter()": "b789bf52",
    "owner()": "8da5cb5b",
    "renounceOwnership()": "715018a6",
    "setListingFee(uint256)": "131dbd09",
    "toggleActive(uint256,bool)": "1cacecaa",
    "tokenIdToOrder(uint256)": "a95b4615",
    "tradeStates(uint256)": "7f24c240",
    "transferOwnership(address)": "f2fde38b",
    "updateDeadline(uint256,uint256)": "899b184f",
    "updateTradeState(uint256,uint256)": "600379b2"
  },
  "id": 25
}