{
  "abi": [
    {
      "inputs": [
        {
          "internalType": "address",
          "name": "_tokenAddress",
          "type": "address"
        },
        {
          "internalType": "address",
          "name": "_feeManagerAddress",
          "type": "address"
        }
      ],
      "stateMutability": "nonpayable",
      "type": "constructor"
    },
    {
      "anonymous": false,
      "inputs": [
        {
          "indexed": true,
          "internalType": "address",
          "name": "user",
          "type": "address"
        },
        {
          "indexed": false,
          "internalType": "uint256",
          "name": "amount",
          "type": "uint256"
        }
      ],
      "name": "InterestClaimed",
      "type": "event"
    },
    {
      "anonymous": false,
      "inputs": [
        {
          "indexed": true,
          "internalType": "address",
          "name": "previousOwner",
          "type": "address"
        },
        {
          "indexed": true,
          "internalType": "address",
          "name": "newOwner",
          "type": "address"
        }
      ],
      "name": "OwnershipTransferred",
      "type": "event"
    },
    {
      "anonymous": false,
      "inputs": [
        {
          "indexed": true,
          "internalType": "address",
          "name": "user",
          "type": "address"
        },
        {
          "indexed": false,
          "internalType": "uint256",
          "name": "amount",
          "type": "uint256"
        }
      ],
      "name": "Redeemed",
      "type": "event"
    },
    {
      "anonymous": false,
      "inputs": [
        {
          "indexed": true,
          "internalType": "address",
          "name": "user",
          "type": "address"
        },
        {
          "indexed": false,
          "internalType": "uint256",
          "name": "amount",
          "type": "uint256"
        }
      ],
      "name": "Staked",
      "type": "event"
    },
    {
      "inputs": [],
      "name": "claimInterest",
      "outputs": [],
      "stateMutability": "nonpayable",
      "type": "function"
    },
    {
      "inputs": [],
      "name": "feeManager",
      "outputs": [
        {
          "internalType": "address",
          "name": "",
          "type": "address"
        }
      ],
      "stateMutability": "view",
      "type": "function"
    },
    {
      "inputs": [],
      "name": "feePercentage",
      "outputs": [
        {
          "internalType": "uint256",
          "name": "",
          "type": "uint256"
        }
      ],
      "stateMutability": "view",
      "type": "function"
    },
    {
      "inputs": [
        {
          "internalType": "address",
          "name": "user",
          "type": "address"
        }
      ],
      "name": "getAccruedInterest",
      "outputs": [
        {
          "internalType": "uint256",
          "name": "",
          "type": "uint256"
        }
      ],
      "stateMutability": "view",
      "type": "function"
    },
    {
      "inputs": [],
      "name": "hourlyInterestRate",
      "outputs": [
        {
          "internalType": "uint256",
          "name": "",
          "type": "uint256"
        }
      ],
      "stateMutability": "view",
      "type": "function"
    },
    {
      "inputs": [
        {
          "internalType": "address",
          "name": "",
          "type": "address"
        }
      ],
      "name": "lastClaimedUserTimestamp",
      "outputs": [
        {
          "internalType": "uint256",
          "name": "",
          "type": "uint256"
        }
      ],
      "stateMutability": "view",
      "type": "function"
    },
    {
      "inputs": [],
      "name": "owner",
      "outputs": [
        {
          "internalType": "address",
          "name": "",
          "type": "address"
        }
      ],
      "stateMutability": "view",
      "type": "function"
    },
    {
      "inputs": [
        {
          "internalType": "uint256",
          "name": "amount",
          "type": "uint256"
        }
      ],
      "name": "redeem",
      "outputs": [],
      "stateMutability": "nonpayable",
      "type": "function"
    },
    {
      "inputs": [],
      "name": "renounceOwnership",
      "outputs": [],
      "stateMutability": "nonpayable",
      "type": "function"
    },
    {
      "inputs": [
        {
          "internalType": "address",
          "name": "_feeManagerAddress",
          "type": "address"
        }
      ],
      "name": "setFeeManager",
      "outputs": [],
      "stateMutability": "nonpayable",
      "type": "function"
    },
    {
      "inputs": [
        {
          "internalType": "uint256",
          "name": "_feePercentage",
          "type": "uint256"
        }
      ],
      "name": "setFeePercentage",
      "outputs": [],
      "stateMutability": "nonpayable",
      "type": "function"
    },
    {
      "inputs": [
        {
          "internalType": "uint256",
          "name": "_hourlyInterestRate",
          "type": "uint256"
        }
      ],
      "name": "setHourlyInterestRate",
      "outputs": [],
      "stateMutability": "nonpayable",
      "type": "function"
    },
    {
      "inputs": [
        {
          "internalType": "uint256",
          "name": "amount",
          "type": "uint256"
        }
      ],
      "name": "stake",
      "outputs": [],
      "stateMutability": "nonpayable",
      "type": "function"
    },
    {
      "inputs": [
        {
          "internalType": "address",
          "name": "",
          "type": "address"
        }
      ],
      "name": "stakedBalances",
      "outputs": [
        {
          "internalType": "uint256",
          "name": "",
          "type": "uint256"
        }
      ],
      "stateMutability": "view",
      "type": "function"
    },
    {
      "inputs": [
        {
          "internalType": "address",
          "name": "",
          "type": "address"
        }
      ],
      "name": "stakedTimeInSeconds",
      "outputs": [
        {
          "internalType": "uint256",
          "name": "",
          "type": "uint256"
        }
      ],
      "stateMutability": "view",
      "type": "function"
    },
    {
      "inputs": [
        {
          "internalType": "address",
          "name": "tokenAddress",
          "type": "address"
        }
      ],
      "name": "sweep",
      "outputs": [],
      "stateMutability": "nonpayable",
      "type": "function"
    },
    {
      "inputs": [],
      "name": "token",
      "outputs": [
        {
          "internalType": "contract IERC20",
          "name": "",
          "type": "address"
        }
      ],
      "stateMutability": "view",
      "type": "function"
    },
    {
      "inputs": [],
      "name": "totalStaked",
      "outputs": [
        {
          "internalType": "uint256",
          "name": "",
          "type": "uint256"
        }
      ],
      "stateMutability": "view",
      "type": "function"
    },
    {
      "inputs": [
        {
          "internalType": "address",
          "name": "newOwner",
          "type": "address"
        }
      ],
      "name": "transferOwnership",
      "outputs": [],
      "stateMutability": "nonpayable",
      "type": "function"
    }
  ],
  "bytecode": {
    "object": "0x608060405234801561001057600080fd5b50604051610e77380380610e7783398101604081905261002f916100df565b61003833610073565b600180546001600160a01b039384166001600160a01b0319918216179091556032600255601460035560048054929093169116179055610112565b600080546001600160a01b038381166001600160a01b0319831681178455604051919092169283917f8be0079c531659141344cd1fd0a4f28419497f9722a3daafe3b4186f6b6457e09190a35050565b80516001600160a01b03811681146100da57600080fd5b919050565b600080604083850312156100f257600080fd5b6100fb836100c3565b9150610109602084016100c3565b90509250929050565b610d56806101216000396000f3fe608060405234801561001057600080fd5b50600436106101215760003560e01c80638da5cb5b116100ad578063bbf14e7411610071578063bbf14e741461024a578063d0fb02031461025d578063db006a7514610270578063f2fde38b14610283578063fc0c546a1461029657600080fd5b80638da5cb5b146101d6578063a001ecdd146101fb578063a694fc3a14610204578063ae06c1b714610217578063ae4713b91461022a57600080fd5b80635d395211116100f45780635d3952111461018957806370901a7814610192578063715018a6146101a5578063817b1cd2146101ad578063837b8fd0146101b657600080fd5b806301681a62146101265780631460fa871461013b57806335981fd81461016e578063472d35b914610176575b600080fd5b610139610134366004610bfe565b6102a9565b005b61015b610149366004610bfe565b60066020526000908152604090205481565b6040519081526020015b60405180910390f35b610139610416565b610139610184366004610bfe565b610628565b61015b60025481565b6101396101a0366004610c2e565b610652565b61013961065f565b61015b60055481565b61015b6101c4366004610bfe565b60076020526000908152604090205481565b6000546001600160a01b03165b6040516001600160a01b039091168152602001610165565b61015b60035481565b610139610212366004610c2e565b610673565b610139610225366004610c2e565b6107d9565b61015b610238366004610bfe565b60086020526000908152604090205481565b61015b610258366004610bfe565b6107e6565b6004546101e3906001600160a01b031681565b61013961027e366004610c2e565b6107f7565b610139610291366004610bfe565b6109af565b6001546101e3906001600160a01b031681565b6102b1610a28565b6001546001600160a01b03908116908216036103145760405162461bcd60e51b815260206004820152601960248201527f43616e6e6f74207377656570207374616b656420746f6b656e0000000000000060448201526064015b60405180910390fd5b6040516370a0823160e01b815230600482015281906000906001600160a01b038316906370a0823190602401602060405180830381865afa15801561035d573d6000803e3d6000fd5b505050506040513d601f19601f820116820180604052508101906103819190610c47565b60405163a9059cbb60e01b8152336004820152602481018290529091506001600160a01b0383169063a9059cbb906044016020604051808303816000875af11580156103d1573d6000803e3d6000fd5b505050506040513d601f19601f820116820180604052508101906103f59190610c60565b6104115760405162461bcd60e51b815260040161030b90610c82565b505050565b600061042133610a82565b9050600081116104735760405162461bcd60e51b815260206004820152601c60248201527f4e6f206163637275656420696e74657265737420746f20636c61696d00000000604482015260640161030b565b60006064600354836104859190610cc1565b61048f9190610cd8565b9050600061049d8284610cfa565b60015460405163a9059cbb60e01b8152336004820152602481018390529192506001600160a01b03169063a9059cbb906044016020604051808303816000875af11580156104ef573d6000803e3d6000fd5b505050506040513d601f19601f820116820180604052508101906105139190610c60565b61052f5760405162461bcd60e51b815260040161030b90610c82565b6001546004805460405163a9059cbb60e01b81526001600160a01b0391821692810192909252602482018590529091169063a9059cbb906044016020604051808303816000875af1158015610588573d6000803e3d6000fd5b505050506040513d601f19601f820116820180604052508101906105ac9190610c60565b6105ee5760405162461bcd60e51b8152602060048201526013602482015272119959481d1c985b9cd9995c8819985a5b1959606a1b604482015260640161030b565b60405181815233907ff9984c8173c4b4ff9cc454f76ed19c053f4490ccb224fd9ddffeb4ef4bea35309060200160405180910390a2505050565b610630610a28565b600480546001600160a01b0319166001600160a01b0392909216919091179055565b61065a610a28565b600255565b610667610a28565b6106716000610b09565b565b600081116106c35760405162461bcd60e51b815260206004820152601d60248201527f416d6f756e74206d7573742062652067726561746572207468616e2030000000604482015260640161030b565b6001546040516323b872dd60e01b8152336004820152306024820152604481018390526001600160a01b03909116906323b872dd906064016020604051808303816000875af115801561071a573d6000803e3d6000fd5b505050506040513d601f19601f8201168201806040525081019061073e9190610c60565b61075a5760405162461bcd60e51b815260040161030b90610c82565b61076333610b59565b3360009081526006602052604081208054839290610782908490610d0d565b92505081905550806005600082825461079b9190610d0d565b909155505060405181815233907f9e71bc8eea02a63969f509818f2dafb9254532904319f9dbda79b67bd34a5f3d906020015b60405180910390a250565b6107e1610a28565b600355565b60006107f182610a82565b92915050565b600081116108475760405162461bcd60e51b815260206004820152601d60248201527f416d6f756e74206d7573742062652067726561746572207468616e2030000000604482015260640161030b565b336000908152600660205260409020548111156108a65760405162461bcd60e51b815260206004820152601b60248201527f496e73756666696369656e74207374616b65642062616c616e63650000000000604482015260640161030b565b6108af33610b59565b33600090815260066020526040812080548392906108ce908490610cfa565b9250508190555080600560008282546108e79190610cfa565b909155505060015460405163a9059cbb60e01b8152336004820152602481018390526001600160a01b039091169063a9059cbb906044016020604051808303816000875af115801561093d573d6000803e3d6000fd5b505050506040513d601f19601f820116820180604052508101906109619190610c60565b61097d5760405162461bcd60e51b815260040161030b90610c82565b60405181815233907f4896181ff8f4543cc00db9fe9b6fb7e6f032b7eb772c72ab1ec1b4d2e03b9369906020016107ce565b6109b7610a28565b6001600160a01b038116610a1c5760405162461bcd60e51b815260206004820152602660248201527f4f776e61626c653a206e6577206f776e657220697320746865207a65726f206160448201526564647265737360d01b606482015260840161030b565b610a2581610b09565b50565b6000546001600160a01b031633146106715760405162461bcd60e51b815260206004820181905260248201527f4f776e61626c653a2063616c6c6572206973206e6f7420746865206f776e6572604482015260640161030b565b6001600160a01b0381166000908152600660209081526040808320546007909252822054808303610ab7575060009392505050565b426000610ac48383610cfa565b90506000606460025486610ad89190610cc1565b610ae29190610cd8565b90506000610e10610af38484610cc1565b610afd9190610cd8565b98975050505050505050565b600080546001600160a01b038381166001600160a01b0319831681178455604051919092169283917f8be0079c531659141344cd1fd0a4f28419497f9722a3daafe3b4186f6b6457e09190a35050565b6001600160a01b0381166000908152600760205260408120549003610b94576001600160a01b03811660009081526007602052604090204290555b6001600160a01b038116600090815260076020526040812054610bb79042610cfa565b90508015610bfa576001600160a01b0382166000908152600760209081526040808320429055600890915281208054839290610bf4908490610d0d565b90915550505b5050565b600060208284031215610c1057600080fd5b81356001600160a01b0381168114610c2757600080fd5b9392505050565b600060208284031215610c4057600080fd5b5035919050565b600060208284031215610c5957600080fd5b5051919050565b600060208284031215610c7257600080fd5b81518015158114610c2757600080fd5b6020808252600f908201526e151c985b9cd9995c8819985a5b1959608a1b604082015260600190565b634e487b7160e01b600052601160045260246000fd5b80820281158282048414176107f1576107f1610cab565b600082610cf557634e487b7160e01b600052601260045260246000fd5b500490565b818103818111156107f1576107f1610cab565b808201808211156107f1576107f1610cab56fea26469706673582212208ff7b92745641204c6955985e20e42545b1c0d3564723c0ba8fbe0028e0909c864736f6c63430008150033",
    "linkReferences": {}
  },
  "methodIdentifiers": {
    "claimInterest()": "35981fd8",
    "feeManager()": "d0fb0203",
    "feePercentage()": "a001ecdd",
    "getAccruedInterest(address)": "bbf14e74",
    "hourlyInterestRate()": "5d395211",
    "lastClaimedUserTimestamp(address)": "837b8fd0",
    "owner()": "8da5cb5b",
    "redeem(uint256)": "db006a75",
    "renounceOwnership()": "715018a6",
    "setFeeManager(address)": "472d35b9",
    "setFeePercentage(uint256)": "ae06c1b7",
    "setHourlyInterestRate(uint256)": "70901a78",
    "stake(uint256)": "a694fc3a",
    "stakedBalances(address)": "1460fa87",
    "stakedTimeInSeconds(address)": "ae4713b9",
    "sweep(address)": "01681a62",
    "token()": "fc0c546a",
    "totalStaked()": "817b1cd2",
    "transferOwnership(address)": "f2fde38b"
  },
  "id": 3
}