{
  "abi": [
    {
      "inputs": [],
      "stateMutability": "nonpayable",
      "type": "constructor"
    },
    {
      "inputs": [],
      "name": "DeadlineTooSoon",
      "type": "error"
    },
    {
      "inputs": [],
      "name": "InvalidSignature",
      "type": "error"
    },
    {
      "inputs": [],
      "name": "ListingExpired",
      "type": "error"
    },
    {
      "inputs": [],
      "name": "ListingNotActive",
      "type": "error"
    },
    {
      "inputs": [],
      "name": "ListingNotExistent",
      "type": "error"
    },
    {
      "inputs": [],
      "name": "MinDurationNotMet",
      "type": "error"
    },
    {
      "inputs": [],
      "name": "MinPriceTooLow",
      "type": "error"
    },
    {
      "inputs": [],
      "name": "NotApproved",
      "type": "error"
    },
    {
      "inputs": [],
      "name": "NotOwner",
      "type": "error"
    },
    {
      "inputs": [
        {
          "internalType": "uint256",
          "name": "originalPrice",
          "type": "uint256"
        }
      ],
      "name": "PriceMismatch",
      "type": "error"
    },
    {
      "inputs": [
        {
          "internalType": "int256",
          "name": "difference",
          "type": "int256"
        }
      ],
      "name": "PriceNotMet",
      "type": "error"
    },
    {
      "anonymous": false,
      "inputs": [
        {
          "indexed": true,
          "internalType": "uint256",
          "name": "listingId",
          "type": "uint256"
        },
        {
          "components": [
            {
              "internalType": "address",
              "name": "token",
              "type": "address"
            },
            {
              "internalType": "uint256",
              "name": "tokenId",
              "type": "uint256"
            },
            {
              "internalType": "uint256",
              "name": "price",
              "type": "uint256"
            },
            {
              "internalType": "bytes",
              "name": "sig",
              "type": "bytes"
            },
            {
              "internalType": "uint88",
              "name": "deadline",
              "type": "uint88"
            },
            {
              "internalType": "address",
              "name": "lister",
              "type": "address"
            },
            {
              "internalType": "bool",
              "name": "active",
              "type": "bool"
            }
          ],
          "indexed": false,
          "internalType": "struct Marketplace.Listing",
          "name": "",
          "type": "tuple"
        }
      ],
      "name": "ListingCreated",
      "type": "event"
    },
    {
      "anonymous": false,
      "inputs": [
        {
          "indexed": true,
          "internalType": "uint256",
          "name": "listingId",
          "type": "uint256"
        },
        {
          "components": [
            {
              "internalType": "address",
              "name": "token",
              "type": "address"
            },
            {
              "internalType": "uint256",
              "name": "tokenId",
              "type": "uint256"
            },
            {
              "internalType": "uint256",
              "name": "price",
              "type": "uint256"
            },
            {
              "internalType": "bytes",
              "name": "sig",
              "type": "bytes"
            },
            {
              "internalType": "uint88",
              "name": "deadline",
              "type": "uint88"
            },
            {
              "internalType": "address",
              "name": "lister",
              "type": "address"
            },
            {
              "internalType": "bool",
              "name": "active",
              "type": "bool"
            }
          ],
          "indexed": false,
          "internalType": "struct Marketplace.Listing",
          "name": "",
          "type": "tuple"
        }
      ],
      "name": "ListingEdited",
      "type": "event"
    },
    {
      "anonymous": false,
      "inputs": [
        {
          "indexed": true,
          "internalType": "uint256",
          "name": "listingId",
          "type": "uint256"
        },
        {
          "components": [
            {
              "internalType": "address",
              "name": "token",
              "type": "address"
            },
            {
              "internalType": "uint256",
              "name": "tokenId",
              "type": "uint256"
            },
            {
              "internalType": "uint256",
              "name": "price",
              "type": "uint256"
            },
            {
              "internalType": "bytes",
              "name": "sig",
              "type": "bytes"
            },
            {
              "internalType": "uint88",
              "name": "deadline",
              "type": "uint88"
            },
            {
              "internalType": "address",
              "name": "lister",
              "type": "address"
            },
            {
              "internalType": "bool",
              "name": "active",
              "type": "bool"
            }
          ],
          "indexed": false,
          "internalType": "struct Marketplace.Listing",
          "name": "",
          "type": "tuple"
        }
      ],
      "name": "ListingExecuted",
      "type": "event"
    },
    {
      "inputs": [],
      "name": "admin",
      "outputs": [
        {
          "internalType": "address",
          "name": "",
          "type": "address"
        }
      ],
      "stateMutability": "view",
      "type": "function"
    },
    {
      "inputs": [
        {
          "components": [
            {
              "internalType": "address",
              "name": "token",
              "type": "address"
            },
            {
              "internalType": "uint256",
              "name": "tokenId",
              "type": "uint256"
            },
            {
              "internalType": "uint256",
              "name": "price",
              "type": "uint256"
            },
            {
              "internalType": "bytes",
              "name": "sig",
              "type": "bytes"
            },
            {
              "internalType": "uint88",
              "name": "deadline",
              "type": "uint88"
            },
            {
              "internalType": "address",
              "name": "lister",
              "type": "address"
            },
            {
              "internalType": "bool",
              "name": "active",
              "type": "bool"
            }
          ],
          "internalType": "struct Marketplace.Listing",
          "name": "l",
          "type": "tuple"
        }
      ],
      "name": "createListing",
      "outputs": [
        {
          "internalType": "uint256",
          "name": "lId",
          "type": "uint256"
        }
      ],
      "stateMutability": "nonpayable",
      "type": "function"
    },
    {
      "inputs": [
        {
          "internalType": "uint256",
          "name": "_listingId",
          "type": "uint256"
        },
        {
          "internalType": "uint256",
          "name": "_newPrice",
          "type": "uint256"
        },
        {
          "internalType": "bool",
          "name": "_active",
          "type": "bool"
        }
      ],
      "name": "editListing",
      "outputs": [],
      "stateMutability": "nonpayable",
      "type": "function"
    },
    {
      "inputs": [
        {
          "internalType": "uint256",
          "name": "_listingId",
          "type": "uint256"
        }
      ],
      "name": "executeListing",
      "outputs": [],
      "stateMutability": "payable",
      "type": "function"
    },
    {
      "inputs": [
        {
          "internalType": "uint256",
          "name": "_listingId",
          "type": "uint256"
        }
      ],
      "name": "getListing",
      "outputs": [
        {
          "components": [
            {
              "internalType": "address",
              "name": "token",
              "type": "address"
            },
            {
              "internalType": "uint256",
              "name": "tokenId",
              "type": "uint256"
            },
            {
              "internalType": "uint256",
              "name": "price",
              "type": "uint256"
            },
            {
              "internalType": "bytes",
              "name": "sig",
              "type": "bytes"
            },
            {
              "internalType": "uint88",
              "name": "deadline",
              "type": "uint88"
            },
            {
              "internalType": "address",
              "name": "lister",
              "type": "address"
            },
            {
              "internalType": "bool",
              "name": "active",
              "type": "bool"
            }
          ],
          "internalType": "struct Marketplace.Listing",
          "name": "",
          "type": "tuple"
        }
      ],
      "stateMutability": "view",
      "type": "function"
    },
    {
      "inputs": [],
      "name": "listingId",
      "outputs": [
        {
          "internalType": "uint256",
          "name": "",
          "type": "uint256"
        }
      ],
      "stateMutability": "view",
      "type": "function"
    },
    {
      "inputs": [
        {
          "internalType": "uint256",
          "name": "",
          "type": "uint256"
        }
      ],
      "name": "listings",
      "outputs": [
        {
          "internalType": "address",
          "name": "token",
          "type": "address"
        },
        {
          "internalType": "uint256",
          "name": "tokenId",
          "type": "uint256"
        },
        {
          "internalType": "uint256",
          "name": "price",
          "type": "uint256"
        },
        {
          "internalType": "bytes",
          "name": "sig",
          "type": "bytes"
        },
        {
          "internalType": "uint88",
          "name": "deadline",
          "type": "uint88"
        },
        {
          "internalType": "address",
          "name": "lister",
          "type": "address"
        },
        {
          "internalType": "bool",
          "name": "active",
          "type": "bool"
        }
      ],
      "stateMutability": "view",
      "type": "function"
    }
  ],
  "bytecode": {
    "object": "0x608060405234801561001057600080fd5b50600180546001600160a01b031916331790556113a7806100326000396000f3fe6080604052600436106100705760003560e01c80639405dfdd1161004e5780639405dfdd146100fb578063a137454a14610111578063de74e57b14610124578063f851a4401461015757600080fd5b8063107a274a146100755780636031b965146100ab578063673c9745146100cd575b600080fd5b34801561008157600080fd5b50610095610090366004610cac565b61018f565b6040516100a29190610d0b565b60405180910390f35b3480156100b757600080fd5b506100cb6100c6366004610da5565b6102e0565b005b3480156100d957600080fd5b506100ed6100e8366004610dde565b6103a6565b6040519081526020016100a2565b34801561010757600080fd5b506100ed60025481565b6100cb61011f366004610cac565b6107e8565b34801561013057600080fd5b5061014461013f366004610cac565b6109c0565b6040516100a29796959493929190610e20565b34801561016357600080fd5b50600154610177906001600160a01b031681565b6040516001600160a01b0390911681526020016100a2565b6040805160e0810182526000808252602082018190529181018290526060808201526080810182905260a0810182905260c081019190915260008281526020818152604091829020825160e08101845281546001600160a01b0316815260018201549281019290925260028101549282019290925260038201805491929160608401919061021c90610e7a565b80601f016020809104026020016040519081016040528092919081815260200182805461024890610e7a565b80156102955780601f1061026a57610100808354040283529160200191610295565b820191906000526020600020905b81548152906001019060200180831161027857829003601f168201915b5050509183525050600491909101546001600160581b0381166020830152600160581b81046001600160a01b03166040830152600160f81b900460ff16151560609091015292915050565b6002548310610302576040516371b0734960e01b815260040160405180910390fd5b60008381526020819052604090206004810154600160581b90046001600160a01b03163314610344576040516330cd747160e01b815260040160405180910390fd5b600281018390556004810180546001600160f81b0316600160f81b8415150217905560405184907f711bbeab0c3c49ab747c3aebdf0fef778cce1045930a45981c2d2e424c8f2be090610398908490610f31565b60405180910390a250505050565b6000336103b66020840184610fe8565b6040516331a9108f60e11b8152602085013560048201526001600160a01b039190911690636352211e90602401602060405180830381865afa158015610400573d6000803e3d6000fd5b505050506040513d601f19601f820116820180604052508101906104249190611005565b6001600160a01b03161461044b576040516330cd747160e01b815260040160405180910390fd5b6104586020830183610fe8565b60405163e985e9c560e01b81523360048201523060248201526001600160a01b03919091169063e985e9c590604401602060405180830381865afa1580156104a4573d6000803e3d6000fd5b505050506040513d601f19601f820116820180604052508101906104c89190611022565b6104e55760405163c19f17a960e01b815260040160405180910390fd5b662386f26fc1000082604001351015610511576040516308f172db60e31b815260040160405180910390fd5b4261052260a0840160808501611056565b6001600160581b0316101561054a576040516325a8637d60e21b815260040160405180910390fd5b610e104261055e60a0850160808601611056565b6001600160581b03166105719190611087565b101561059057604051633d03108f60e11b815260040160405180910390fd5b6106bb73__$36a9d5dd491f3686fdf32d605954e90678$__63de65e6a86105ba6020860186610fe8565b602086013560408701356105d460a0890160808a01611056565b6105e460c08a0160a08b01610fe8565b60405160e087901b6001600160e01b03191681526001600160a01b039586166004820152602481019490945260448401929092526001600160581b03166064830152909116608482015260a401602060405180830381865af415801561064e573d6000803e3d6000fd5b505050506040513d601f19601f82011682018060405250810190610672919061109a565b61067f60608501856110b3565b8080601f016020809104026020016040519081016040528093929190818152602001838380828437600092019190915250339250610aaa915050565b6106d857604051638baa579f60e01b815260040160405180910390fd5b600254600090815260208181526040909120906106f790840184610fe8565b81546001600160a01b0319166001600160a01b0391909116178155602083013560018201556040830135600282015561073360608401846110b3565b6003830191610743919083611166565b5061075460a0840160808501611056565b600482018054600160f81b6001600160581b03939093166001600160f81b03199091161733600160581b02176001600160f81b03169190911790556002546040517f4f8b49fb5aa9bf0825e860a7da4145d667a97fef8be58b9f21c478430e2189ae906107c2908690611250565b60405180910390a2600280549250829060006107dd83611331565b919050555050919050565b600254811061080a576040516371b0734960e01b815260040160405180910390fd5b60008181526020819052604090206004810154426001600160581b03909116101561084857604051631cc67e8160e11b815260040160405180910390fd5b6004810154600160f81b900460ff16610874576040516366cb03e960e01b815260040160405180910390fd5b348160020154146108b45734816002015461088f919061134a565b604051631031d7dd60e11b81526004016108ab91815260200190565b60405180910390fd5b600481810180546001600160f81b031690819055825460018401546040516323b872dd60e01b81526001600160a01b03600160581b909404841694810194909452336024850152604484015216906323b872dd90606401600060405180830381600087803b15801561092557600080fd5b505af1158015610939573d6000803e3d6000fd5b5050505060048101546002820154604051600160581b9092046001600160a01b0316916108fc82150291906000818181858888f19350505050158015610983573d6000803e3d6000fd5b50817f3ecf511164eb743e05e7d6f2ba49af7bb9c1c70535db709555c3bc588b02e312826040516109b49190610f31565b60405180910390a25050565b60006020819052908152604090208054600182015460028301546003840180546001600160a01b039094169492939192916109fa90610e7a565b80601f0160208091040260200160405190810160405280929190818152602001828054610a2690610e7a565b8015610a735780601f10610a4857610100808354040283529160200191610a73565b820191906000526020600020905b815481529060010190602001808311610a5657829003601f168201915b505050600490930154919250506001600160581b038116906001600160a01b03600160581b8204169060ff600160f81b9091041687565b600080610b04856040517f19457468657265756d205369676e6564204d6573736167653a0a3332000000006020820152603c8101829052600090605c01604051602081830303815290604052805190602001209050919050565b9050610b18610b138286610b48565b610bc8565b610b2183610bc8565b826001600160a01b0316610b358286610b48565b6001600160a01b03161495945050505050565b600080600080610b5785610c13565b6040805160008152602081018083528b905260ff8316918101919091526060810184905260808101839052929550909350915060019060a0016020604051602081039080840390855afa158015610bb2573d6000803e3d6000fd5b5050506020604051035193505050505b92915050565b6040516001600160a01b0382166024820152610c109060440160408051601f198184030181529190526020810180516001600160e01b031663161765e160e11b179052610c87565b50565b60008060008351604114610c695760405162461bcd60e51b815260206004820152601860248201527f496e76616c6964207369676e6174757265206c656e677468000000000000000060448201526064016108ab565b50505060208101516040820151606090920151909260009190911a90565b610c108180516a636f6e736f6c652e6c6f67602083016000808483855afa5050505050565b600060208284031215610cbe57600080fd5b5035919050565b6000815180845260005b81811015610ceb57602081850181015186830182015201610ccf565b506000602082860101526020601f19601f83011685010191505092915050565b60208152600060018060a01b038084511660208401526020840151604084015260408401516060840152606084015160e06080850152610d4f610100850182610cc5565b90506001600160581b0360808601511660a08501528160a08601511660c085015260c0850151151560e0850152809250505092915050565b8015158114610c1057600080fd5b8035610da081610d87565b919050565b600080600060608486031215610dba57600080fd5b83359250602084013591506040840135610dd381610d87565b809150509250925092565b600060208284031215610df057600080fd5b813567ffffffffffffffff811115610e0757600080fd5b820160e08185031215610e1957600080fd5b9392505050565b600060018060a01b03808a16835288602084015287604084015260e06060840152610e4e60e0840188610cc5565b6001600160581b039690961660808401529390931660a082015290151560c09091015250949350505050565b600181811c90821680610e8e57607f821691505b602082108103610eae57634e487b7160e01b600052602260045260246000fd5b50919050565b60008154610ec181610e7a565b808552602060018381168015610ede5760018114610ef857610f26565b60ff1985168884015283151560051b880183019550610f26565b866000528260002060005b85811015610f1e5781548a8201860152908301908401610f03565b890184019650505b505050505092915050565b60208152610f5a60208201610f4d84546001600160a01b031690565b6001600160a01b03169052565b600182015460408201526002820154606082015260e060808201526000610f88610100830160038501610eb4565b60048401546001600160581b03811660a08501526001600160a01b03605882901c1660c0850152610fc060e085018260f81c15159052565b509392505050565b6001600160a01b0381168114610c1057600080fd5b8035610da081610fc8565b600060208284031215610ffa57600080fd5b8135610e1981610fc8565b60006020828403121561101757600080fd5b8151610e1981610fc8565b60006020828403121561103457600080fd5b8151610e1981610d87565b80356001600160581b0381168114610da057600080fd5b60006020828403121561106857600080fd5b610e198261103f565b634e487b7160e01b600052601160045260246000fd5b81810381811115610bc257610bc2611071565b6000602082840312156110ac57600080fd5b5051919050565b6000808335601e198436030181126110ca57600080fd5b83018035915067ffffffffffffffff8211156110e557600080fd5b6020019150368190038213156110fa57600080fd5b9250929050565b634e487b7160e01b600052604160045260246000fd5b601f82111561116157600081815260208120601f850160051c8101602086101561113e5750805b601f850160051c820191505b8181101561115d5782815560010161114a565b5050505b505050565b67ffffffffffffffff83111561117e5761117e611101565b6111928361118c8354610e7a565b83611117565b6000601f8411600181146111c657600085156111ae5750838201355b600019600387901b1c1916600186901b178355611220565b600083815260209020601f19861690835b828110156111f757868501358255602094850194600190920191016111d7565b50868210156112145760001960f88860031b161c19848701351681555b505060018560011b0183555b5050505050565b81835281816020850137506000828201602090810191909152601f909101601f19169091010190565b602081526000823561126181610fc8565b60018060a01b03811660208401525060208301356040830152604083013560608301526060830135601e1984360301811261129b57600080fd5b830160208101903567ffffffffffffffff8111156112b857600080fd5b8036038213156112c757600080fd5b60e060808501526112dd61010085018284611227565b9150506112ec6080850161103f565b6001600160581b03811660a08501525061130860a08501610fdd565b6001600160a01b03811660c08501525061132460c08501610d95565b80151560e0850152610fc0565b60006001820161134357611343611071565b5060010190565b818103600083128015838313168383128216171561136a5761136a611071565b509291505056fea26469706673582212200dccbe9744f658eb3947ce67d0df4e224b0a37ae4c98989f88780ff2bbed035764736f6c63430008150033",
    "linkReferences": {
      "src/libraries/SignUtils.sol": {
        "SignUtils": [
          {
            "start": 1479,
            "length": 20
          }
        ]
      }
    }
  },
  "methodIdentifiers": {
    "admin()": "f851a440",
    "createListing((address,uint256,uint256,bytes,uint88,address,bool))": "673c9745",
    "editListing(uint256,uint256,bool)": "6031b965",
    "executeListing(uint256)": "a137454a",
    "getListing(uint256)": "107a274a",
    "listingId()": "9405dfdd",
    "listings(uint256)": "de74e57b"
  },
  "id": 25
}