{
  "abi": [
    {
      "inputs": [
        {
          "internalType": "address",
          "name": "_token",
          "type": "address"
        },
        {
          "internalType": "uint256",
          "name": "_tokenId",
          "type": "uint256"
        },
        {
          "internalType": "uint256",
          "name": "_price",
          "type": "uint256"
        },
        {
          "internalType": "uint88",
          "name": "_deadline",
          "type": "uint88"
        },
        {
          "internalType": "address",
          "name": "_seller",
          "type": "address"
        }
      ],
      "name": "constructMessageHash",
      "outputs": [
        {
          "internalType": "bytes32",
          "name": "",
          "type": "bytes32"
        }
      ],
      "stateMutability": "pure",
      "type": "function"
    },
    {
      "inputs": [
        {
          "internalType": "uint256",
          "name": "_tokenId",
          "type": "uint256"
        },
        {
          "internalType": "uint256",
          "name": "_price",
          "type": "uint256"
        },
        {
          "internalType": "address",
          "name": "_seller",
          "type": "address"
        },
        {
          "internalType": "uint256",
          "name": "_deadline",
          "type": "uint256"
        }
      ],
      "name": "constructMessageHashV2",
      "outputs": [
        {
          "internalType": "bytes32",
          "name": "",
          "type": "bytes32"
        }
      ],
      "stateMutability": "pure",
      "type": "function"
    }
  ],
  "bytecode": {
    "object": "0x61023061003a600b82828239805160001a60731461002d57634e487b7160e01b600052600060045260246000fd5b30600052607381538281f3fe73000000000000000000000000000000000000000030146080604052600436106100405760003560e01c8063c4d5713314610045578063de65e6a8146100bb575b600080fd5b6100a9610053366004610154565b6040805160208101869052908101849052606083811b6bffffffffffffffffffffffff19169082015260748101829052600090609401604051602081830303815290604052805190602001209050949350505050565b60405190815260200160405180910390f35b6100a96100c9366004610191565b6040516bffffffffffffffffffffffff19606087811b8216602084015260348301879052605483018690526001600160a81b031960a886901b16607484015283901b16607f82015260009060930160405160208183030381529060405280519060200120905095945050505050565b80356001600160a01b038116811461014f57600080fd5b919050565b6000806000806080858703121561016a57600080fd5b843593506020850135925061018160408601610138565b9396929550929360600135925050565b600080600080600060a086880312156101a957600080fd5b6101b286610138565b9450602086013593506040860135925060608601356affffffffffffffffffffff811681146101e057600080fd5b91506101ee60808701610138565b9050929550929590935056fea2646970667358221220c07dada75841a034aa6f4a15b32035a005f17f9f02d6709622ffc9060f02a9e964736f6c63430008150033",
    "linkReferences": {}
  },
  "methodIdentifiers": {
    "constructMessageHash(address,uint256,uint256,uint88,address)": "de65e6a8",
    "constructMessageHashV2(uint256,uint256,address,uint256)": "c4d57133"
  },
  "id": 27
}