{
  "abi": [
    {
      "inputs": [],
      "name": "getPackedValues",
      "outputs": [
        {
          "internalType": "uint128",
          "name": "value1",
          "type": "uint128"
        },
        {
          "internalType": "uint128",
          "name": "value2",
          "type": "uint128"
        }
      ],
      "stateMutability": "view",
      "type": "function"
    },
    {
      "inputs": [
        {
          "internalType": "uint128",
          "name": "value1",
          "type": "uint128"
        },
        {
          "internalType": "uint128",
          "name": "value2",
          "type": "uint128"
        }
      ],
      "name": "setPackedValues",
      "outputs": [],
      "stateMutability": "nonpayable",
      "type": "function"
    }
  ],
  "bytecode": {
    "object": "0x608060405234801561001057600080fd5b5061010e806100206000396000f3fe6080604052348015600f57600080fd5b506004361060325760003560e01c80631a83625a14603757806377535cb514605f575b600080fd5b60005460408051608083901c81526001600160801b0390921660208301528051918290030190f35b608d606a36600460aa565b806001600160801b03166080836001600160801b0316901b176000819055505050565b005b80356001600160801b038116811460a557600080fd5b919050565b6000806040838503121560bc57600080fd5b60c383608f565b915060cf60208401608f565b9050925092905056fea26469706673582212207036e255e49d1476dd426662a6ad3c393ebb7b9559cf1f95a236897b4e09aaa464736f6c63430008150033",
    "linkReferences": {}
  },
  "methodIdentifiers": {
    "getPackedValues()": "1a83625a",
    "setPackedValues(uint128,uint128)": "77535cb5"
  },
  "id": 19
}