{
  "abi": [
    {
      "inputs": [],
      "stateMutability": "nonpayable",
      "type": "constructor"
    },
    {
      "inputs": [],
      "name": "owner",
      "outputs": [
        {
          "internalType": "address",
          "name": "",
          "type": "address"
        }
      ],
      "stateMutability": "view",
      "type": "function"
    },
    {
      "inputs": [
        {
          "internalType": "address",
          "name": "token",
          "type": "address"
        },
        {
          "internalType": "bytes",
          "name": "data",
          "type": "bytes"
        }
      ],
      "name": "sendMsg",
      "outputs": [],
      "stateMutability": "payable",
      "type": "function"
    },
    {
      "inputs": [
        {
          "internalType": "address",
          "name": "newAddress",
          "type": "address"
        }
      ],
      "name": "transferOwnership",
      "outputs": [],
      "stateMutability": "nonpayable",
      "type": "function"
    },
    {
      "inputs": [
        {
          "internalType": "address",
          "name": "_tokenAddress",
          "type": "address"
        },
        {
          "internalType": "uint256",
          "name": "_amount",
          "type": "uint256"
        }
      ],
      "name": "withdraw",
      "outputs": [],
      "stateMutability": "nonpayable",
      "type": "function"
    },
    {
      "inputs": [
        {
          "internalType": "address[]",
          "name": "_tokenAddresses",
          "type": "address[]"
        },
        {
          "internalType": "uint256[]",
          "name": "_amounts",
          "type": "uint256[]"
        }
      ],
      "name": "withdrawMultiple",
      "outputs": [],
      "stateMutability": "nonpayable",
      "type": "function"
    }
  ],
  "bytecode": {
    "object": "0x608060405234801561001057600080fd5b50600080546001600160a01b03191633179055610741806100326000396000f3fe60806040526004361061004a5760003560e01c80636468244d1461004f57806372c1ab0c146100645780638da5cb5b14610084578063f2fde38b146100c0578063f3fef3a3146100e0575b600080fd5b61006261005d366004610515565b610100565b005b34801561007057600080fd5b5061006261007f3660046105e4565b610172565b34801561009057600080fd5b506000546100a4906001600160a01b031681565b6040516001600160a01b03909116815260200160405180910390f35b3480156100cc57600080fd5b506100626100db366004610650565b61034a565b3480156100ec57600080fd5b506100626100fb366004610672565b6103d9565b6000836001600160a01b0316838360405161011c92919061069c565b6000604051808303816000865af19150503d8060008114610159576040519150601f19603f3d011682016040523d82523d6000602084013e61015e565b606091505b505090508061016c57600080fd5b50505050565b6000546001600160a01b0316331461018957600080fd5b8281146101d65760405162461bcd60e51b8152602060048201526016602482015275082e4e4c2f2e640d8cadccee8d040dad2e6dac2e8c6d60531b60448201526064015b60405180910390fd5b60005b838110156103435760008585838181106101f5576101f56106ac565b905060200201602081019061020a9190610650565b90506000848484818110610220576102206106ac565b905060200201359050600081116102795760405162461bcd60e51b815260206004820152601d60248201527f416d6f756e74206d7573742062652067726561746572207468616e203000000060448201526064016101cd565b60005460405163a9059cbb60e01b81526001600160a01b039182166004820152602481018390529083169063a9059cbb906044016020604051808303816000875af11580156102cc573d6000803e3d6000fd5b505050506040513d601f19601f820116820180604052508101906102f091906106c2565b61032e5760405162461bcd60e51b815260206004820152600f60248201526e151c985b9cd9995c8819985a5b1959608a1b60448201526064016101cd565b5050808061033b906106e4565b9150506101d9565b5050505050565b6000546001600160a01b0316331461036157600080fd5b6001600160a01b0381166103b75760405162461bcd60e51b815260206004820181905260248201527f4e6577206f776e65722063616e6e6f74206265207a65726f206164647265737360448201526064016101cd565b600080546001600160a01b0319166001600160a01b0392909216919091179055565b6000546001600160a01b031633146103f057600080fd5b600081116104405760405162461bcd60e51b815260206004820152601d60248201527f416d6f756e74206d7573742062652067726561746572207468616e203000000060448201526064016101cd565b60005460405163a9059cbb60e01b81526001600160a01b039182166004820152602481018390529083169063a9059cbb906044016020604051808303816000875af1158015610493573d6000803e3d6000fd5b505050506040513d601f19601f820116820180604052508101906104b791906106c2565b6104f55760405162461bcd60e51b815260206004820152600f60248201526e151c985b9cd9995c8819985a5b1959608a1b60448201526064016101cd565b5050565b80356001600160a01b038116811461051057600080fd5b919050565b60008060006040848603121561052a57600080fd5b610533846104f9565b9250602084013567ffffffffffffffff8082111561055057600080fd5b818601915086601f83011261056457600080fd5b81358181111561057357600080fd5b87602082850101111561058557600080fd5b6020830194508093505050509250925092565b60008083601f8401126105aa57600080fd5b50813567ffffffffffffffff8111156105c257600080fd5b6020830191508360208260051b85010111156105dd57600080fd5b9250929050565b600080600080604085870312156105fa57600080fd5b843567ffffffffffffffff8082111561061257600080fd5b61061e88838901610598565b9096509450602087013591508082111561063757600080fd5b5061064487828801610598565b95989497509550505050565b60006020828403121561066257600080fd5b61066b826104f9565b9392505050565b6000806040838503121561068557600080fd5b61068e836104f9565b946020939093013593505050565b8183823760009101908152919050565b634e487b7160e01b600052603260045260246000fd5b6000602082840312156106d457600080fd5b8151801515811461066b57600080fd5b60006001820161070457634e487b7160e01b600052601160045260246000fd5b506001019056fea26469706673582212205b368655e29312a5c0181ffb15b2eef84fef6bfff3965d40001077564bddd65564736f6c63430008150033",
    "linkReferences": {}
  },
  "methodIdentifiers": {
    "owner()": "8da5cb5b",
    "sendMsg(address,bytes)": "6468244d",
    "transferOwnership(address)": "f2fde38b",
    "withdraw(address,uint256)": "f3fef3a3",
    "withdrawMultiple(address[],uint256[])": "72c1ab0c"
  },
  "id": 5
}